{
  "contractName": "CrowdfundingRegistry",
  "abi": [
    {
      "anonymous": false,
      "inputs": [
        {
          "indexed": true,
          "internalType": "address",
          "name": "newVersion",
          "type": "address"
        }
      ],
      "name": "NewVersionRegistered",
      "type": "event"
    },
    {
      "anonymous": false,
      "inputs": [
        {
          "indexed": true,
          "internalType": "address",
          "name": "previousOwner",
          "type": "address"
        },
        {
          "indexed": true,
          "internalType": "address",
          "name": "newOwner",
          "type": "address"
        }
      ],
      "name": "OwnershipTransferred",
      "type": "event"
    },
    {
      "inputs": [],
      "name": "latestVersion",
      "outputs": [
        {
          "internalType": "address",
          "name": "",
          "type": "address"
        }
      ],
      "stateMutability": "view",
      "type": "function"
    },
    {
      "inputs": [],
      "name": "owner",
      "outputs": [
        {
          "internalType": "address",
          "name": "",
          "type": "address"
        }
      ],
      "stateMutability": "view",
      "type": "function"
    },
    {
      "inputs": [],
      "name": "renounceOwnership",
      "outputs": [],
      "stateMutability": "nonpayable",
      "type": "function"
    },
    {
      "inputs": [
        {
          "internalType": "address",
          "name": "newOwner",
          "type": "address"
        }
      ],
      "name": "transferOwnership",
      "outputs": [],
      "stateMutability": "nonpayable",
      "type": "function"
    },
    {
      "inputs": [
        {
          "internalType": "address",
          "name": "_newVersion",
          "type": "address"
        }
      ],
      "name": "registerNewVersion",
      "outputs": [],
      "stateMutability": "nonpayable",
      "type": "function"
    }
  ],
  "bytecode": "0x608060405234801561001057600080fd5b5061002d61002261003260201b60201c565b61003a60201b60201c565b6100fe565b600033905090565b60008060009054906101000a900473ffffffffffffffffffffffffffffffffffffffff169050816000806101000a81548173ffffffffffffffffffffffffffffffffffffffff021916908373ffffffffffffffffffffffffffffffffffffffff1602179055508173ffffffffffffffffffffffffffffffffffffffff168173ffffffffffffffffffffffffffffffffffffffff167f8be0079c531659141344cd1fd0a4f28419497f9722a3daafe3b4186f6b6457e060405160405180910390a35050565b6105988061010d6000396000f3fe608060405234801561001057600080fd5b50600436106100575760003560e01c8063715018a61461005c5780638da5cb5b14610066578063bfd4c78114610084578063c07f47d4146100a0578063f2fde38b146100be575b600080fd5b6100646100da565b005b61006e6100ee565b60405161007b91906103da565b60405180910390f35b61009e60048036038101906100999190610426565b610117565b005b6100a86101a6565b6040516100b591906103da565b60405180910390f35b6100d860048036038101906100d39190610426565b6101cc565b005b6100e261024f565b6100ec60006102cd565b565b60008060009054906101000a900473ffffffffffffffffffffffffffffffffffffffff16905090565b61011f61024f565b80600160006101000a81548173ffffffffffffffffffffffffffffffffffffffff021916908373ffffffffffffffffffffffffffffffffffffffff1602179055508073ffffffffffffffffffffffffffffffffffffffff167fd2bc5e94495e386270c223a143fe70505cc227852bd981af81e3d848cc74809f60405160405180910390a250565b600160009054906101000a900473ffffffffffffffffffffffffffffffffffffffff1681565b6101d461024f565b600073ffffffffffffffffffffffffffffffffffffffff168173ffffffffffffffffffffffffffffffffffffffff1603610243576040517f08c379a000000000000000000000000000000000000000000000000000000000815260040161023a906104d6565b60405180910390fd5b61024c816102cd565b50565b610257610391565b73ffffffffffffffffffffffffffffffffffffffff166102756100ee565b73ffffffffffffffffffffffffffffffffffffffff16146102cb576040517f08c379a00000000000000000000000000000000000000000000000000000000081526004016102c290610542565b60405180910390fd5b565b60008060009054906101000a900473ffffffffffffffffffffffffffffffffffffffff169050816000806101000a81548173ffffffffffffffffffffffffffffffffffffffff021916908373ffffffffffffffffffffffffffffffffffffffff1602179055508173ffffffffffffffffffffffffffffffffffffffff168173ffffffffffffffffffffffffffffffffffffffff167f8be0079c531659141344cd1fd0a4f28419497f9722a3daafe3b4186f6b6457e060405160405180910390a35050565b600033905090565b600073ffffffffffffffffffffffffffffffffffffffff82169050919050565b60006103c482610399565b9050919050565b6103d4816103b9565b82525050565b60006020820190506103ef60008301846103cb565b92915050565b600080fd5b610403816103b9565b811461040e57600080fd5b50565b600081359050610420816103fa565b92915050565b60006020828403121561043c5761043b6103f5565b5b600061044a84828501610411565b91505092915050565b600082825260208201905092915050565b7f4f776e61626c653a206e6577206f776e657220697320746865207a65726f206160008201527f6464726573730000000000000000000000000000000000000000000000000000602082015250565b60006104c0602683610453565b91506104cb82610464565b604082019050919050565b600060208201905081810360008301526104ef816104b3565b9050919050565b7f4f776e61626c653a2063616c6c6572206973206e6f7420746865206f776e6572600082015250565b600061052c602083610453565b9150610537826104f6565b602082019050919050565b6000602082019050818103600083015261055b8161051f565b905091905056fea26469706673582212209b0dac3659ac911dd4ad7d097ed43860cd03b8141bcfcd904fe286ac7a83f68b64736f6c63430008150033",
  "immutableReferences": {},
  "source": "// SPDX-License-Identifier: MIT\r\npragma solidity ^0.8.0;\r\n\r\nimport \"@openzeppelin/contracts/security/ReentrancyGuard.sol\";\r\nimport \"@openzeppelin/contracts/access/Ownable.sol\";\r\n\r\ncontract CrowdfundingRegistry is Ownable {\r\n    address public latestVersion;\r\n    \r\n    event NewVersionRegistered(address indexed newVersion);\r\n\r\n    function registerNewVersion(address _newVersion) external onlyOwner {\r\n        latestVersion = _newVersion;\r\n        emit NewVersionRegistered(_newVersion);\r\n    }\r\n}\r\n\r\ncontract Crowdfunding is ReentrancyGuard {\r\n    struct Campaign {\r\n        address payable creator;\r\n        string title;\r\n        uint256 goal;\r\n        uint256 deadline;\r\n        uint256 amountRaised;\r\n        bool fundsReleased;\r\n    }\r\n\r\n    // Auto-generated campaign IDs\r\n    mapping(bytes32 => Campaign) public campaigns;\r\n    mapping(bytes32 => mapping(address => uint256)) public contributions;\r\n    mapping(bytes32 => address[]) public backers;\r\n    mapping(bytes32 => mapping(address => uint256)) public pendingRefunds;\r\n\r\n    CrowdfundingRegistry public immutable registry;\r\n    \r\n    event CampaignCreated(\r\n        bytes32 indexed campaignId, \r\n        address indexed creator, \r\n        string title, \r\n        uint256 goal, \r\n        uint256 deadline\r\n    );\r\n    \r\n    event ContributionMade(\r\n        bytes32 indexed campaignId, \r\n        address indexed backer, \r\n        uint256 amount\r\n    );\r\n    \r\n    event FundsReleased(bytes32 indexed campaignId, uint256 amount);\r\n    event RefundAvailable(bytes32 indexed campaignId, address indexed backer, uint256 amount);\r\n\r\n    constructor(address _registryAddress) {\r\n        registry = CrowdfundingRegistry(_registryAddress);\r\n    }\r\n\r\n    function createCampaign(\r\n        string memory _title,\r\n        uint256 _goal,\r\n        uint256 _durationDays\r\n    ) external {\r\n        require(_goal > 0, \"Goal must be greater than 0\");\r\n        require(_durationDays > 0, \"Duration must be greater than 0\");\r\n        \r\n        bytes32 campaignId = keccak256(\r\n            abi.encodePacked(\r\n                block.timestamp,\r\n                msg.sender,\r\n                _title,\r\n                _goal\r\n            )\r\n        );\r\n        \r\n        campaigns[campaignId] = Campaign(\r\n            payable(msg.sender),\r\n            _title,\r\n            _goal,\r\n            block.timestamp + _durationDays * 1 days,\r\n            0,\r\n            false\r\n        );\r\n        \r\n        emit CampaignCreated(\r\n            campaignId,\r\n            msg.sender,\r\n            _title,\r\n            _goal,\r\n            block.timestamp + _durationDays * 1 days\r\n        );\r\n    }\r\n\r\n    function contribute(bytes32 _campaignId) external payable {\r\n        Campaign storage campaign = campaigns[_campaignId];\r\n        require(block.timestamp < campaign.deadline, \"Campaign has ended\");\r\n        require(msg.value > 0, \"Contribution must be greater than 0\");\r\n        \r\n        if (contributions[_campaignId][msg.sender] == 0) {\r\n            backers[_campaignId].push(msg.sender);\r\n        }\r\n        \r\n        campaign.amountRaised += msg.value;\r\n        contributions[_campaignId][msg.sender] += msg.value;\r\n        emit ContributionMade(_campaignId, msg.sender, msg.value);\r\n    }\r\n\r\n    function finalizeCampaign(bytes32 _campaignId) external nonReentrant {\r\n        Campaign storage campaign = campaigns[_campaignId];\r\n        require(block.timestamp >= campaign.deadline, \"Campaign not ended yet\");\r\n        require(!campaign.fundsReleased, \"Funds already handled\");\r\n        \r\n        campaign.fundsReleased = true;\r\n\r\n        if (campaign.amountRaised >= campaign.goal) {\r\n            campaign.creator.transfer(campaign.amountRaised);\r\n            emit FundsReleased(_campaignId, campaign.amountRaised);\r\n        } else {\r\n            address[] storage campaignBackers = backers[_campaignId];\r\n            for (uint256 i = 0; i < campaignBackers.length; i++) {\r\n                address backer = campaignBackers[i];\r\n                uint256 amount = contributions[_campaignId][backer];\r\n                if (amount > 0) {\r\n                    pendingRefunds[_campaignId][backer] = amount;\r\n                    contributions[_campaignId][backer] = 0;\r\n                    emit RefundAvailable(_campaignId, backer, amount);\r\n                }\r\n            }\r\n        }\r\n    }\r\n\r\n    function claimRefund(bytes32 _campaignId) external nonReentrant {\r\n        uint256 amount = pendingRefunds[_campaignId][msg.sender];\r\n        require(amount > 0, \"No refund available\");\r\n        \r\n        pendingRefunds[_campaignId][msg.sender] = 0;\r\n        payable(msg.sender).transfer(amount);\r\n    }\r\n\r\n    // Helper functions\r\n    function daysToSeconds(uint256 _days) public pure returns (uint256) {\r\n        return _days * 1 days;\r\n    }\r\n\r\n    function getBackers(bytes32 _campaignId) public view returns (address[] memory) {\r\n        return backers[_campaignId];\r\n    }\r\n}\r\n",
  "sourcePath": "C:\\Users\\PRUDHVI\\Desktop\\crowdfunding - Copy\\contracts\\Crowdfunding.sol",
  "compiler": {
    "name": "solc",
    "version": "0.8.21+commit.d9974bed.Emscripten.clang"
  },
  "schemaVersion": "3.4.4",
  "updatedAt": "2025-04-27T19:59:44.528Z",
  "devdoc": {
    "kind": "dev",
    "methods": {
      "owner()": {
        "details": "Returns the address of the current owner."
      },
      "renounceOwnership()": {
        "details": "Leaves the contract without owner. It will not be possible to call `onlyOwner` functions. Can only be called by the current owner. NOTE: Renouncing ownership will leave the contract without an owner, thereby disabling any functionality that is only available to the owner."
      },
      "transferOwnership(address)": {
        "details": "Transfers ownership of the contract to a new account (`newOwner`). Can only be called by the current owner."
      }
    },
    "version": 1
  },
  "userdoc": {
    "kind": "user",
    "methods": {},
    "version": 1
  }
}