{
  "contractName": "Crowdfunding",
  "abi": [
    {
      "anonymous": false,
      "inputs": [
        {
          "indexed": false,
          "internalType": "uint256",
          "name": "campaignId",
          "type": "uint256"
        },
        {
          "indexed": false,
          "internalType": "address",
          "name": "creator",
          "type": "address"
        },
        {
          "indexed": false,
          "internalType": "string",
          "name": "title",
          "type": "string"
        },
        {
          "indexed": false,
          "internalType": "uint256",
          "name": "goal",
          "type": "uint256"
        },
        {
          "indexed": false,
          "internalType": "uint256",
          "name": "deadline",
          "type": "uint256"
        }
      ],
      "name": "CampaignCreated",
      "type": "event"
    },
    {
      "anonymous": false,
      "inputs": [
        {
          "indexed": false,
          "internalType": "uint256",
          "name": "campaignId",
          "type": "uint256"
        },
        {
          "indexed": false,
          "internalType": "address",
          "name": "backer",
          "type": "address"
        },
        {
          "indexed": false,
          "internalType": "uint256",
          "name": "amount",
          "type": "uint256"
        }
      ],
      "name": "ContributionMade",
      "type": "event"
    },
    {
      "anonymous": false,
      "inputs": [
        {
          "indexed": false,
          "internalType": "uint256",
          "name": "campaignId",
          "type": "uint256"
        },
        {
          "indexed": false,
          "internalType": "address",
          "name": "creator",
          "type": "address"
        },
        {
          "indexed": false,
          "internalType": "uint256",
          "name": "amount",
          "type": "uint256"
        }
      ],
      "name": "FundsReleased",
      "type": "event"
    },
    {
      "anonymous": false,
      "inputs": [
        {
          "indexed": false,
          "internalType": "uint256",
          "name": "campaignId",
          "type": "uint256"
        },
        {
          "indexed": false,
          "internalType": "address",
          "name": "backer",
          "type": "address"
        },
        {
          "indexed": false,
          "internalType": "uint256",
          "name": "amount",
          "type": "uint256"
        }
      ],
      "name": "RefundIssued",
      "type": "event"
    },
    {
      "inputs": [
        {
          "internalType": "uint256",
          "name": "",
          "type": "uint256"
        },
        {
          "internalType": "uint256",
          "name": "",
          "type": "uint256"
        }
      ],
      "name": "backers",
      "outputs": [
        {
          "internalType": "address",
          "name": "",
          "type": "address"
        }
      ],
      "stateMutability": "view",
      "type": "function",
      "constant": true
    },
    {
      "inputs": [],
      "name": "campaignCount",
      "outputs": [
        {
          "internalType": "uint256",
          "name": "",
          "type": "uint256"
        }
      ],
      "stateMutability": "view",
      "type": "function",
      "constant": true
    },
    {
      "inputs": [
        {
          "internalType": "uint256",
          "name": "",
          "type": "uint256"
        }
      ],
      "name": "campaigns",
      "outputs": [
        {
          "internalType": "address payable",
          "name": "creator",
          "type": "address"
        },
        {
          "internalType": "string",
          "name": "title",
          "type": "string"
        },
        {
          "internalType": "uint256",
          "name": "goal",
          "type": "uint256"
        },
        {
          "internalType": "uint256",
          "name": "deadline",
          "type": "uint256"
        },
        {
          "internalType": "uint256",
          "name": "amountRaised",
          "type": "uint256"
        },
        {
          "internalType": "bool",
          "name": "fundsReleased",
          "type": "bool"
        }
      ],
      "stateMutability": "view",
      "type": "function",
      "constant": true
    },
    {
      "inputs": [
        {
          "internalType": "uint256",
          "name": "",
          "type": "uint256"
        },
        {
          "internalType": "address",
          "name": "",
          "type": "address"
        }
      ],
      "name": "contributions",
      "outputs": [
        {
          "internalType": "uint256",
          "name": "",
          "type": "uint256"
        }
      ],
      "stateMutability": "view",
      "type": "function",
      "constant": true
    },
    {
      "inputs": [
        {
          "internalType": "string",
          "name": "_title",
          "type": "string"
        },
        {
          "internalType": "uint256",
          "name": "_goal",
          "type": "uint256"
        },
        {
          "internalType": "uint256",
          "name": "_duration",
          "type": "uint256"
        }
      ],
      "name": "createCampaign",
      "outputs": [],
      "stateMutability": "nonpayable",
      "type": "function"
    },
    {
      "inputs": [
        {
          "internalType": "uint256",
          "name": "_campaignId",
          "type": "uint256"
        }
      ],
      "name": "contribute",
      "outputs": [],
      "stateMutability": "payable",
      "type": "function",
      "payable": true
    },
    {
      "inputs": [
        {
          "internalType": "uint256",
          "name": "_campaignId",
          "type": "uint256"
        }
      ],
      "name": "releaseOrRefund",
      "outputs": [],
      "stateMutability": "nonpayable",
      "type": "function"
    },
    {
      "inputs": [],
      "name": "getCampaignCount",
      "outputs": [
        {
          "internalType": "uint256",
          "name": "",
          "type": "uint256"
        }
      ],
      "stateMutability": "view",
      "type": "function",
      "constant": true
    },
    {
      "inputs": [
        {
          "internalType": "uint256",
          "name": "_campaignId",
          "type": "uint256"
        }
      ],
      "name": "getCampaign",
      "outputs": [
        {
          "internalType": "address",
          "name": "creator",
          "type": "address"
        },
        {
          "internalType": "string",
          "name": "title",
          "type": "string"
        },
        {
          "internalType": "uint256",
          "name": "goal",
          "type": "uint256"
        },
        {
          "internalType": "uint256",
          "name": "deadline",
          "type": "uint256"
        },
        {
          "internalType": "uint256",
          "name": "amountRaised",
          "type": "uint256"
        },
        {
          "internalType": "bool",
          "name": "fundsReleased",
          "type": "bool"
        }
      ],
      "stateMutability": "view",
      "type": "function",
      "constant": true
    },
    {
      "inputs": [
        {
          "internalType": "uint256",
          "name": "_campaignId",
          "type": "uint256"
        },
        {
          "internalType": "address",
          "name": "_backer",
          "type": "address"
        }
      ],
      "name": "getContribution",
      "outputs": [
        {
          "internalType": "uint256",
          "name": "",
          "type": "uint256"
        }
      ],
      "stateMutability": "view",
      "type": "function",
      "constant": true
    },
    {
      "inputs": [
        {
          "internalType": "uint256",
          "name": "_campaignId",
          "type": "uint256"
        }
      ],
      "name": "getBackers",
      "outputs": [
        {
          "internalType": "address[]",
          "name": "",
          "type": "address[]"
        }
      ],
      "stateMutability": "view",
      "type": "function",
      "constant": true
    }
  ],
  "bytecode": "0x608060405234801561001057600080fd5b506001600081905550611d14806100286000396000f3fe60806040526004361061009c5760003560e01c80637274e30d116100645780637274e30d146101b65780638a18362c146101e1578063ba16960c1461021e578063c1cbbca714610247578063c9168b7214610263578063e081dbf9146102a05761009c565b8063141961bc146100a15780633020580b146100e35780633d891f591461010c5780635598f8cc146101495780636caa92181461018b575b600080fd5b3480156100ad57600080fd5b506100c860048036038101906100c39190610f70565b6102dd565b6040516100da96959493929190611098565b60405180910390f35b3480156100ef57600080fd5b5061010a60048036038101906101059190611235565b6103ce565b005b34801561011857600080fd5b50610133600480360381019061012e91906112e2565b6105c2565b6040516101409190611322565b60405180910390f35b34801561015557600080fd5b50610170600480360381019061016b9190610f70565b6105e7565b6040516101829695949392919061134c565b60405180910390f35b34801561019757600080fd5b506101a0610768565b6040516101ad9190611322565b60405180910390f35b3480156101c257600080fd5b506101cb610772565b6040516101d89190611322565b60405180910390f35b3480156101ed57600080fd5b50610208600480360381019061020391906113b4565b610778565b60405161021591906113f4565b60405180910390f35b34801561022a57600080fd5b5061024560048036038101906102409190610f70565b6107c6565b005b610261600480360381019061025c9190610f70565b610ba3565b005b34801561026f57600080fd5b5061028a60048036038101906102859190610f70565b610dd1565b60405161029791906114cd565b60405180910390f35b3480156102ac57600080fd5b506102c760048036038101906102c291906112e2565b610e72565b6040516102d49190611322565b60405180910390f35b60026020528060005260406000206000915090508060000160009054906101000a900473ffffffffffffffffffffffffffffffffffffffff16908060010180546103269061151e565b80601f01602080910402602001604051908101604052809291908181526020018280546103529061151e565b801561039f5780601f106103745761010080835404028352916020019161039f565b820191906000526020600020905b81548152906001019060200180831161038257829003601f168201915b5050505050908060020154908060030154908060040154908060050160009054906101000a900460ff16905086565b60008211610411576040517f08c379a00000000000000000000000000000000000000000000000000000000081526004016104089061159b565b60405180910390fd5b60008111610454576040517f08c379a000000000000000000000000000000000000000000000000000000000815260040161044b90611607565b60405180910390fd5b6001600081548092919061046790611656565b91905055506040518060c001604052803373ffffffffffffffffffffffffffffffffffffffff16815260200184815260200183815260200182426104ab919061169e565b8152602001600081526020016000151581525060026000600154815260200190815260200160002060008201518160000160006101000a81548173ffffffffffffffffffffffffffffffffffffffff021916908373ffffffffffffffffffffffffffffffffffffffff160217905550602082015181600101908161052f919061187e565b5060408201518160020155606082015181600301556080820151816004015560a08201518160050160006101000a81548160ff0219169083151502179055509050507fdc26653af5b99b2da33e2ad69ee6600d9aeccc82b034501db4338309615ca23860015433858585426105a4919061169e565b6040516105b5959493929190611950565b60405180910390a1505050565b6003602052816000526040600020602052806000526040600020600091509150505481565b600060606000806000806000600260008981526020019081526020016000206040518060c00160405290816000820160009054906101000a900473ffffffffffffffffffffffffffffffffffffffff1673ffffffffffffffffffffffffffffffffffffffff1673ffffffffffffffffffffffffffffffffffffffff1681526020016001820180546106779061151e565b80601f01602080910402602001604051908101604052809291908181526020018280546106a39061151e565b80156106f05780601f106106c5576101008083540402835291602001916106f0565b820191906000526020600020905b8154815290600101906020018083116106d357829003601f168201915b505050505081526020016002820154815260200160038201548152602001600482015481526020016005820160009054906101000a900460ff1615151515815250509050806000015181602001518260400151836060015184608001518560a001519650965096509650965096505091939550919395565b6000600154905090565b60015481565b6004602052816000526040600020818154811061079457600080fd5b906000526020600020016000915091509054906101000a900473ffffffffffffffffffffffffffffffffffffffff1681565b6107ce610ecd565b6000600260008381526020019081526020016000209050806003015442101561082c576040517f08c379a0000000000000000000000000000000000000000000000000000000008152600401610823906119f6565b60405180910390fd5b8060050160009054906101000a900460ff161561087e576040517f08c379a000000000000000000000000000000000000000000000000000000000815260040161087590611a62565b60405180910390fd5b60018160050160006101000a81548160ff0219169083151502179055508060020154816004015410610981578060000160009054906101000a900473ffffffffffffffffffffffffffffffffffffffff1673ffffffffffffffffffffffffffffffffffffffff166108fc82600401549081150290604051600060405180830381858888f19350505050158015610918573d6000803e3d6000fd5b507f6e3c6096795c8298a218b2cfb8bde42726ff7c9a3d27b4d3ba41ab7f74feb5fb828260000160009054906101000a900473ffffffffffffffffffffffffffffffffffffffff16836004015460405161097493929190611ad7565b60405180910390a1610b97565b600060046000848152602001908152602001600020805480602002602001604051908101604052809291908181526020018280548015610a1657602002820191906000526020600020905b8160009054906101000a900473ffffffffffffffffffffffffffffffffffffffff1673ffffffffffffffffffffffffffffffffffffffff16815260200190600101908083116109cc575b5050505050905060005b8151811015610b94576000828281518110610a3e57610a3d611b0e565b5b6020026020010151905060006003600087815260200190815260200160002060008373ffffffffffffffffffffffffffffffffffffffff1673ffffffffffffffffffffffffffffffffffffffff1681526020019081526020016000205490506000811115610b7f5760006003600088815260200190815260200160002060008473ffffffffffffffffffffffffffffffffffffffff1673ffffffffffffffffffffffffffffffffffffffff168152602001908152602001600020819055508173ffffffffffffffffffffffffffffffffffffffff166108fc829081150290604051600060405180830381858888f19350505050158015610b42573d6000803e3d6000fd5b507f7a482fdeb6bc9a1376f597068a214a7a39472bb2eff1b8cad21ba04f49ddca1b868383604051610b7693929190611b3d565b60405180910390a15b50508080610b8c90611656565b915050610a20565b50505b50610ba0610f1c565b50565b600060026000838152602001908152602001600020905080600301544210610c00576040517f08c379a0000000000000000000000000000000000000000000000000000000008152600401610bf790611bc0565b60405180910390fd5b60003411610c43576040517f08c379a0000000000000000000000000000000000000000000000000000000008152600401610c3a90611c52565b60405180910390fd5b60006003600084815260200190815260200160002060003373ffffffffffffffffffffffffffffffffffffffff1673ffffffffffffffffffffffffffffffffffffffff1681526020019081526020016000205403610d105760046000838152602001908152602001600020339080600181540180825580915050600190039060005260206000200160009091909190916101000a81548173ffffffffffffffffffffffffffffffffffffffff021916908373ffffffffffffffffffffffffffffffffffffffff1602179055505b34816004016000828254610d24919061169e565b92505081905550346003600084815260200190815260200160002060003373ffffffffffffffffffffffffffffffffffffffff1673ffffffffffffffffffffffffffffffffffffffff1681526020019081526020016000206000828254610d8b919061169e565b925050819055507f0a4a91237423e0a1766a761c7cb029311d8b95d6b1b81db1b949a70c98b4e08e823334604051610dc593929190611b3d565b60405180910390a15050565b606060046000838152602001908152602001600020805480602002602001604051908101604052809291908181526020018280548015610e6657602002820191906000526020600020905b8160009054906101000a900473ffffffffffffffffffffffffffffffffffffffff1673ffffffffffffffffffffffffffffffffffffffff1681526020019060010190808311610e1c575b50505050509050919050565b60006003600084815260200190815260200160002060008373ffffffffffffffffffffffffffffffffffffffff1673ffffffffffffffffffffffffffffffffffffffff16815260200190815260200160002054905092915050565b600260005403610f12576040517f08c379a0000000000000000000000000000000000000000000000000000000008152600401610f0990611cbe565b60405180910390fd5b6002600081905550565b6001600081905550565b6000604051905090565b600080fd5b600080fd5b6000819050919050565b610f4d81610f3a565b8114610f5857600080fd5b50565b600081359050610f6a81610f44565b92915050565b600060208284031215610f8657610f85610f30565b5b6000610f9484828501610f5b565b91505092915050565b600073ffffffffffffffffffffffffffffffffffffffff82169050919050565b6000610fc882610f9d565b9050919050565b610fd881610fbd565b82525050565b600081519050919050565b600082825260208201905092915050565b60005b83811015611018578082015181840152602081019050610ffd565b60008484015250505050565b6000601f19601f8301169050919050565b600061104082610fde565b61104a8185610fe9565b935061105a818560208601610ffa565b61106381611024565b840191505092915050565b61107781610f3a565b82525050565b60008115159050919050565b6110928161107d565b82525050565b600060c0820190506110ad6000830189610fcf565b81810360208301526110bf8188611035565b90506110ce604083018761106e565b6110db606083018661106e565b6110e8608083018561106e565b6110f560a0830184611089565b979650505050505050565b600080fd5b600080fd5b7f4e487b7100000000000000000000000000000000000000000000000000000000600052604160045260246000fd5b61114282611024565b810181811067ffffffffffffffff821117156111615761116061110a565b5b80604052505050565b6000611174610f26565b90506111808282611139565b919050565b600067ffffffffffffffff8211156111a05761119f61110a565b5b6111a982611024565b9050602081019050919050565b82818337600083830152505050565b60006111d86111d384611185565b61116a565b9050828152602081018484840111156111f4576111f3611105565b5b6111ff8482856111b6565b509392505050565b600082601f83011261121c5761121b611100565b5b813561122c8482602086016111c5565b91505092915050565b60008060006060848603121561124e5761124d610f30565b5b600084013567ffffffffffffffff81111561126c5761126b610f35565b5b61127886828701611207565b935050602061128986828701610f5b565b925050604061129a86828701610f5b565b9150509250925092565b60006112af82610f9d565b9050919050565b6112bf816112a4565b81146112ca57600080fd5b50565b6000813590506112dc816112b6565b92915050565b600080604083850312156112f9576112f8610f30565b5b600061130785828601610f5b565b9250506020611318858286016112cd565b9150509250929050565b6000602082019050611337600083018461106e565b92915050565b611346816112a4565b82525050565b600060c082019050611361600083018961133d565b81810360208301526113738188611035565b9050611382604083018761106e565b61138f606083018661106e565b61139c608083018561106e565b6113a960a0830184611089565b979650505050505050565b600080604083850312156113cb576113ca610f30565b5b60006113d985828601610f5b565b92505060206113ea85828601610f5b565b9150509250929050565b6000602082019050611409600083018461133d565b92915050565b600081519050919050565b600082825260208201905092915050565b6000819050602082019050919050565b611444816112a4565b82525050565b6000611456838361143b565b60208301905092915050565b6000602082019050919050565b600061147a8261140f565b611484818561141a565b935061148f8361142b565b8060005b838110156114c05781516114a7888261144a565b97506114b283611462565b925050600181019050611493565b5085935050505092915050565b600060208201905081810360008301526114e7818461146f565b905092915050565b7f4e487b7100000000000000000000000000000000000000000000000000000000600052602260045260246000fd5b6000600282049050600182168061153657607f821691505b602082108103611549576115486114ef565b5b50919050565b7f476f616c206d7573742062652067726561746572207468616e20300000000000600082015250565b6000611585601b83610fe9565b91506115908261154f565b602082019050919050565b600060208201905081810360008301526115b481611578565b9050919050565b7f4475726174696f6e206d7573742062652067726561746572207468616e203000600082015250565b60006115f1601f83610fe9565b91506115fc826115bb565b602082019050919050565b60006020820190508181036000830152611620816115e4565b9050919050565b7f4e487b7100000000000000000000000000000000000000000000000000000000600052601160045260246000fd5b600061166182610f3a565b91507fffffffffffffffffffffffffffffffffffffffffffffffffffffffffffffffff820361169357611692611627565b5b600182019050919050565b60006116a982610f3a565b91506116b483610f3a565b92508282019050808211156116cc576116cb611627565b5b92915050565b60008190508160005260206000209050919050565b60006020601f8301049050919050565b600082821b905092915050565b6000600883026117347fffffffffffffffffffffffffffffffffffffffffffffffffffffffffffffffff826116f7565b61173e86836116f7565b95508019841693508086168417925050509392505050565b6000819050919050565b600061177b61177661177184610f3a565b611756565b610f3a565b9050919050565b6000819050919050565b61179583611760565b6117a96117a182611782565b848454611704565b825550505050565b600090565b6117be6117b1565b6117c981848461178c565b505050565b5b818110156117ed576117e26000826117b6565b6001810190506117cf565b5050565b601f82111561183257611803816116d2565b61180c846116e7565b8101602085101561181b578190505b61182f611827856116e7565b8301826117ce565b50505b505050565b600082821c905092915050565b600061185560001984600802611837565b1980831691505092915050565b600061186e8383611844565b9150826002028217905092915050565b61188782610fde565b67ffffffffffffffff8111156118a05761189f61110a565b5b6118aa825461151e565b6118b58282856117f1565b600060209050601f8311600181146118e857600084156118d6578287015190505b6118e08582611862565b865550611948565b601f1984166118f6866116d2565b60005b8281101561191e578489015182556001820191506020850194506020810190506118f9565b8683101561193b5784890151611937601f891682611844565b8355505b6001600288020188555050505b505050505050565b600060a082019050611965600083018861106e565b611972602083018761133d565b81810360408301526119848186611035565b9050611993606083018561106e565b6119a0608083018461106e565b9695505050505050565b7f43616d706169676e206e6f7420656e6465642079657400000000000000000000600082015250565b60006119e0601683610fe9565b91506119eb826119aa565b602082019050919050565b60006020820190508181036000830152611a0f816119d3565b9050919050565b7f46756e647320616c72656164792068616e646c65640000000000000000000000600082015250565b6000611a4c601583610fe9565b9150611a5782611a16565b602082019050919050565b60006020820190508181036000830152611a7b81611a3f565b9050919050565b6000611a9d611a98611a9384610f9d565b611756565b610f9d565b9050919050565b6000611aaf82611a82565b9050919050565b6000611ac182611aa4565b9050919050565b611ad181611ab6565b82525050565b6000606082019050611aec600083018661106e565b611af96020830185611ac8565b611b06604083018461106e565b949350505050565b7f4e487b7100000000000000000000000000000000000000000000000000000000600052603260045260246000fd5b6000606082019050611b52600083018661106e565b611b5f602083018561133d565b611b6c604083018461106e565b949350505050565b7f43616d706169676e2068617320656e6465640000000000000000000000000000600082015250565b6000611baa601283610fe9565b9150611bb582611b74565b602082019050919050565b60006020820190508181036000830152611bd981611b9d565b9050919050565b7f436f6e747269627574696f6e206d75737420626520677265617465722074686160008201527f6e20300000000000000000000000000000000000000000000000000000000000602082015250565b6000611c3c602383610fe9565b9150611c4782611be0565b604082019050919050565b60006020820190508181036000830152611c6b81611c2f565b9050919050565b7f5265656e7472616e637947756172643a207265656e7472616e742063616c6c00600082015250565b6000611ca8601f83610fe9565b9150611cb382611c72565b602082019050919050565b60006020820190508181036000830152611cd781611c9b565b905091905056fea264697066735822122081e1204281a137f36f24f4992b98b2ab85bd06e3a890cfef4cebb1731df1fb5364736f6c63430008150033",
  "immutableReferences": {},
  "source": "// SPDX-License-Identifier: MIT\r\npragma solidity ^0.8.0;\r\n\r\nimport \"@openzeppelin/contracts/security/ReentrancyGuard.sol\";\r\n\r\ncontract Crowdfunding is ReentrancyGuard {\r\n    struct Campaign {\r\n        address payable creator;\r\n        string title;\r\n        uint256 goal;\r\n        uint256 deadline;\r\n        uint256 amountRaised;\r\n        bool fundsReleased;\r\n    }\r\n\r\n    uint256 public campaignCount;\r\n    mapping(uint256 => Campaign) public campaigns;\r\n    mapping(uint256 => mapping(address => uint256)) public contributions;\r\n    mapping(uint256 => address[]) public backers;\r\n\r\n    event CampaignCreated(\r\n        uint256 campaignId,\r\n        address creator,\r\n        string title,\r\n        uint256 goal,\r\n        uint256 deadline\r\n    );\r\n    event ContributionMade(\r\n        uint256 campaignId,\r\n        address backer,\r\n        uint256 amount\r\n    );\r\n    event FundsReleased(\r\n        uint256 campaignId,\r\n        address creator,\r\n        uint256 amount\r\n    );\r\n    event RefundIssued(\r\n        uint256 campaignId,\r\n        address backer,\r\n        uint256 amount\r\n    );\r\n\r\n    // Create a new campaign\r\n    function createCampaign(\r\n        string memory _title,\r\n        uint256 _goal,\r\n        uint256 _duration\r\n    ) external {\r\n        require(_goal > 0, \"Goal must be greater than 0\");\r\n        require(_duration > 0, \"Duration must be greater than 0\");\r\n\r\n        campaignCount++;\r\n        campaigns[campaignCount] = Campaign(\r\n            payable(msg.sender),\r\n            _title,\r\n            _goal,\r\n            block.timestamp + _duration,\r\n            0,\r\n            false\r\n        );\r\n\r\n        emit CampaignCreated(\r\n            campaignCount,\r\n            msg.sender,\r\n            _title,\r\n            _goal,\r\n            block.timestamp + _duration\r\n        );\r\n    }\r\n\r\n    // Contribute to a campaign\r\n    function contribute(uint256 _campaignId) external payable {\r\n        Campaign storage campaign = campaigns[_campaignId];\r\n        require(block.timestamp < campaign.deadline, \"Campaign has ended\");\r\n        require(msg.value > 0, \"Contribution must be greater than 0\");\r\n\r\n        if (contributions[_campaignId][msg.sender] == 0) {\r\n            backers[_campaignId].push(msg.sender);\r\n        }\r\n        campaign.amountRaised += msg.value;\r\n        contributions[_campaignId][msg.sender] += msg.value;\r\n\r\n        emit ContributionMade(_campaignId, msg.sender, msg.value);\r\n    }\r\n\r\n    // Release funds to creator or refund backers\r\n    function releaseOrRefund(uint256 _campaignId) external nonReentrant {\r\n        Campaign storage campaign = campaigns[_campaignId];\r\n        require(block.timestamp >= campaign.deadline, \"Campaign not ended yet\");\r\n        require(!campaign.fundsReleased, \"Funds already handled\");\r\n\r\n        campaign.fundsReleased = true;\r\n\r\n        if (campaign.amountRaised >= campaign.goal) {\r\n            campaign.creator.transfer(campaign.amountRaised);\r\n            emit FundsReleased(_campaignId, campaign.creator, campaign.amountRaised);\r\n        } else {\r\n            address[] memory campaignBackers = backers[_campaignId];\r\n            for (uint256 i = 0; i < campaignBackers.length; i++) {\r\n                address backer = campaignBackers[i];\r\n                uint256 amount = contributions[_campaignId][backer];\r\n                if (amount > 0) {\r\n                    contributions[_campaignId][backer] = 0; // Reset after transfer\r\n                    payable(backer).transfer(amount);\r\n                    emit RefundIssued(_campaignId, backer, amount);\r\n                }\r\n            }\r\n        }\r\n    }\r\n\r\n    // View functions\r\n    function getCampaignCount() public view returns (uint256) {\r\n        return campaignCount;\r\n    }\r\n\r\n    function getCampaign(uint256 _campaignId)\r\n        public\r\n        view\r\n        returns (\r\n            address creator,\r\n            string memory title,\r\n            uint256 goal,\r\n            uint256 deadline,\r\n            uint256 amountRaised,\r\n            bool fundsReleased\r\n        )\r\n    {\r\n        Campaign memory c = campaigns[_campaignId];\r\n        return (c.creator, c.title, c.goal, c.deadline, c.amountRaised, c.fundsReleased);\r\n    }\r\n\r\n    function getContribution(uint256 _campaignId, address _backer) public view returns (uint256) {\r\n        return contributions[_campaignId][_backer];\r\n    }\r\n\r\n    function getBackers(uint256 _campaignId) public view returns (address[] memory) {\r\n        return backers[_campaignId];\r\n    }\r\n}\r\n",
  "sourcePath": "C:\\Users\\PRUDHVI\\Desktop\\crowdfunding - Copy\\contracts\\Crowdfunding.sol",
  "compiler": {
    "name": "solc",
    "version": "0.8.21+commit.d9974bed.Emscripten.clang"
  },
  "schemaVersion": "3.4.4",
  "updatedAt": "2025-04-30T10:55:18.950Z",
  "networkType": "ethereum",
  "devdoc": {
    "kind": "dev",
    "methods": {},
    "version": 1
  },
  "userdoc": {
    "kind": "user",
    "methods": {},
    "version": 1
  }
}